:100000000C9475010C949D010C949D010C949D0120
:100010000C949D010C949D010C949D010C949D01E8
:100020000C949D010C949D010C94F3050C942007F5
:100030000C949D010C949D010C949D010C949D01C8
:100040000C949D010C949D010C949D010C949D01B8
:100050000C949D010C949D010C949D010C94210223
:100060000C949D010C949D010C949D010C949D0198
:100070000C949D010C949D010C949D010C949D0188
:100080000C949D010C949D010C949D010C949D0178
:100090000C949D010C949D010C949D010C949D0168
:1000A0000C949D010C949D010C949D010000000096
:1000B000240027002A002D00300000000000250049
:1000C00028002B002E003100000000002300260035
:1000D00029002C002F000404040404030405020278
:1000E00002020403020202020606060606060404D1
:1000F00002020204040802011040804010204080E7
:10010000408008020401804020100201108010206D
:1001100040400000000200080E0000030401000B34
:1001200000000000000000000000000000000000CF
:10013000070605040100080A0B0C0D09080B000254
:10014000020201000904000001020200000524006F
:100150001001052401010104240206052406000102
:100160000705810310004009040100020A00000095
:100170000705020240000007058302400000040357
:1001800009042203410072006400750069006E00DA
:100190006F0020004C0065006F006E00610072006F
:1001A00064006F001803410072006400750069006C
:1001B0006E006F0020004C004C0043001201000252
:1001C00000000040412336800001010200011201BD
:1001D00000020200004041233680000101020001BC
:1001E00000C18081C105010902A1010901A10085A9
:1001F00001050919012903150025019503750181E0
:100200000295017505810305010930093109381589
:1002100081257F750895038106C0C005010906A1E7
:10022000018502050719E029E715002501750195EB
:10023000088102950175088103950675081500254A
:10024000650507190029658100C009040200010342
:100250000000000921010100012265000705840357
:1002600040000100000000000000002A2B280000D0
:10027000000000000000000000000000000000007E
:100280000000002C9EB4A0A1A2A434A6A7A5AE365F
:100290002D3738271E1F20212223242526B333B6CD
:1002A0002EB7B89F8485868788898A8B8C8D8E8FA0
:1002B000909192939495969798999A9B9C9D2F31A3
:1002C00030A3AD350405060708090A0B0C0D0E0F07
:1002D000101112131415161718191A1B1C1DAFB183
:1002E000B0B5000026043F06A30811241FBECFEFBF
:1002F000DAE0DEBFCDBF11E0A0E0B1E0E8E6F3E177
:1003000002C005900D92A033B107D9F711E0A0E328
:10031000B1E001C01D92A236B107E1F712E0CAEECA
:10032000D2E004C02297FE010E94AE09C43ED1076C
:10033000C9F70E94F8040C94B2090C9400001F93B2
:1003400001C0289A8AE00E94D8030197D1F323C004
:10035000289880E10E94D803019709F04FC080914E
:100360003001813009F04AC0809131019091320111
:1003700001969093320180933101109230015D9883
:1003800003C0109330015D9A62E370E080E090E07A
:100390000E94690201C011E08AE00E94D803892B03
:1003A000B9F280913101909132010A9720F01092B8
:1003B000320110923101409131015091320180910E
:1003C000330190913401FC01EE0FFF1FE65FFE4FF9
:1003D000208131810196909334018093330142173B
:1003E000530709F0FFCF10923201109231010497A8
:1003F00059F484E161E00E94A503FFCF80E10E94EF
:10040000D803892B49F6BDCF1F9108958EE391E063
:1004100040E855E260E070E00E940804559A209A96
:100420008AE062E00E94180380E162E00E94180303
:1004300084E161E00E94180384E160E00E94A5036A
:1004400008951F920F920FB60F9211242F933F938E
:100450008F939F93AF93BF938091390190913A010D
:10046000A0913B01B0913C0130913D010196A11D4D
:10047000B11D232F2D5F2D3720F02D570196A11D83
:10048000B11D20933D018093390190933A01A093CF
:100490003B01B0933C018091350190913601A091D0
:1004A0003701B09138010196A11DB11D809335012E
:1004B00090933601A0933701B0933801BF91AF916B
:1004C0009F918F913F912F910F900FBE0F901F9092
:1004D00018959B01AC017FB7F894809135019091FC
:1004E0003601A0913701B091380166B5A89B05C0CF
:1004F0006F3F19F00196A11DB11D7FBFBA2FA92F23
:10050000982F8827860F911DA11DB11D62E0880FCD
:10051000991FAA1FBB1F6A95D1F7BC012DC0FFB759
:10052000F8948091350190913601A0913701B091F6
:100530003801E6B5A89B05C0EF3F19F00196A11D53
:10054000B11DFFBFBA2FA92F982F88278E0F911D9D
:10055000A11DB11DE2E0880F991FAA1FBB1FEA95DC
:10056000D1F7861B970B885E9340C8F2215030402C
:100570004040504068517C4F2115310541055105DF
:1005800071F60895789484B5826084BD84B58160E5
:1005900084BD85B5826085BD85B5816085BDEEE68B
:1005A000F0E0808181608083E1E8F0E0108280816A
:1005B00082608083808181608083E0E8F0E08081D8
:1005C00081608083E1E9F0E08081826080838081C6
:1005D00081608083E0E9F0E0808181608083E1ECEC
:1005E000F0E080818460808380818260808380816C
:1005F00081608083E3ECF0E0808181608083E0ECC7
:10060000F0E0808182608083E2ECF0E080818160B4
:100610008083EAE7F0E0808184608083808182606B
:100620008083808181608083808180688083089559
:10063000CF93DF93482F50E0CA018C509F4FFC01AD
:1006400034914A525F4FFA018491882369F190E016
:10065000880F991FFC01E455FF4FA591B491FC014F
:10066000E654FF4FC591D491662351F42FB7F89407
:100670008C91932F909589238C93888189230BC02B
:10068000623061F42FB7F8948C91932F9095892361
:100690008C938881832B88832FBF06C09FB7F894E3
:1006A0008C91832B8C939FBFDF91CF9108958830DD
:1006B00071F1893068F4823031F1833020F4813077
:1006C00009F042C01DC0833089F08430E9F512C0C2
:1006D0008B3059F18C3028F48930E9F08A30A1F55B
:1006E0001EC08C3031F18E3079F529C080918000A8
:1006F0008F7703C0809180008F7D80938000089564
:1007000084B58F7702C084B58F7D84BD08958091B4
:1007100090008F7707C0809190008F7D03C08091FB
:100720009000877F8093900008958091C0008F771C
:1007300003C08091C0008F7D8093C0000895809198
:10074000C200877F8093C2000895FF920F931F938A
:10075000F62E482F50E0CA018E5E9E4FFC01249178
:10076000CA018C509F4FFC0114914A525F4FFA010D
:1007700004910023C9F0222319F0822F0E9457030D
:10078000E02FF0E0EE0FFF1FE654FF4FA591B4916C
:100790009FB7F894FF2021F48C911095812302C01B
:1007A0008C91812B8C939FBF1F910F91FF90089587
:1007B0000F931F93482F50E0CA018E5E9E4FFC019D
:1007C0002491CA018C509F4FFC0104914A525F4F03
:1007D000FA011491112319F420E030E015C022230E
:1007E00019F0822F0E945703812F90E0880F991FE4
:1007F00088539F4FFC01A591B4918C9120E030E08B
:10080000802311F021E030E0C9011F910F9108957C
:100810002FEF3FEFFC01358724870895DF93CF93B7
:100820000F92CDB7DEB7FC016983A081B18112962A
:100830002D913C911397BE016F5F7F4F41E050E0D7
:10084000F90109950F90CF91DF9108951092410120
:100850001092400188EE93E0A0E0B0E08093420166
:1008600090934301A0934401B093450186E191E048
:1008700090933F0180933E018FEF9FEF90934B0148
:1008800080934A010895CF93DF93EC018091070193
:10089000882341F083E00E945E061816190614F4BE
:1008A0009C0106C081E090E09B838A8320E030E0D9
:1008B000C901DF91CF91089583E00E94E905089571
:1008C000FC012485358537FD05C08FEF9FEF9587A7
:1008D000848704C082E00E9474059C01C9010895C8
:1008E000CF93DF93EC018C859D8597FF05C082E057
:1008F0000E9474059D878C878C859D85DF91CF91A3
:100900000895FC018485958597FD08C082E00E94CA
:100910003705282F30E02F5F3F4F05C082E00E944F
:100920003705282F30E0C9010895FC0180818E5FD2
:10093000808380E86CE371E042E450E00E948D0522
:100940000895FC0181819081913A59F4813209F036
:100950004CC080E060E071E047E050E00E948D050F
:1009600042C0913209F041C0803239F480E091E018
:1009700067E070E00E94D10536C0823209F035C0D0
:100980008281809307018091000190910101A091E3
:100990000201B0910301805B9440A040B04019F582
:1009A0008091070180FD12C087E797E790930108C7
:1009B000809300082BE088E190E00FB6F894A895AA
:1009C000809360000FBE209360000DC088E10FB6D9
:1009D000F89480936000109260000FBEA89510926A
:1009E00001081092000881E0089580E008950895BC
:1009F000CF93DF930E94C2020E94F70484E591E046
:100A00000E9440060E940602C0E0D0E00E949F01C2
:100A10002097E1F30E940000F9CFCF92DF92EF928E
:100A2000FF920F931F93CF93DF937C016B018A0199
:100A3000C0E0D0E00FC0D6016D916D01D701ED91FE
:100A4000FC910190F081E02DC7010995C80FD91FD5
:100A5000015010400115110571F7CE01DF91CF91C2
:100A60001F910F91FF90EF90DF90CF9008959FB767
:100A7000F89487708093E9008091F2009FBF0895F9
:100A8000282F80914E018823C1F057FF1AC015C04E
:100A9000289890934D018091F1008193E217F3071C
:100AA000B9F74115510539F08091F200882319F406
:100AB0008BE68093E800AFBF02C04FEF5FEFCA0143
:100AC0000895AFB7F89427702093E9008091F20061
:100AD000282F30E0241735070CF4A901FB019B01F6
:100AE000240F311D94E6DACFDF93CF930F92CDB769
:100AF000DEB7BE016F5F7F4F41E050E00E944005CE
:100B0000019719F02FEF3FEF03C08981282F30E0C4
:100B1000C9010F90CF91DF910895FF920F931F931A
:100B2000F82E142F052F4091510150915201212F81
:100B3000302FC901DC01FB016EEF29C0F7FE02C0B6
:100B4000949101C0908120914F0130915001241760
:100B50003507ACF48091E8008570E1F38091E800FE
:100B600082FF03C02FEF3FEF17C09093F100C90140
:100B700001968F739070892B11F46093E8002F5FBA
:100B80003F4F3093500120934F01119731961097AA
:100B9000A9F6812F902F9C01C9011F910F91FF9001
:100BA00008959C018091E80082FFFCCFF901260F97
:100BB000311D03C08091F1008193E217F307D1F753
:100BC000289884E680934D018BEF8093E800CB0159
:100BD00008958093E9008091F200882319F08AE358
:100BE0008093E80008951F920F920FB60F92112480
:100BF0008F939F938091E1001092E100982F83FFE3
:100C00000FC01092E90081E08093EB001092EC009D
:100C100082E38093ED0010924E0188E08093F00013
:100C200092FF26C083E08093E9008091F200882340
:100C300019F08AE38093E80080914C01882351F0F9
:100C400080914C01815080934C0180914C0188230C
:100C500009F45D9A80914D01882351F080914D01F6
:100C6000815080934D0180914D01882309F4289A89
:100C70009F918F910F900FBE0F901F901895089520
:100C800010924E0181E08093D70080EA8093D800D3
:100C900082E189BD09B400FEFDCF61E070E080E033
:100CA00090E00E94690280E98093D8008CE08093F4
:100CB000E2001092E000559A209A08955F926F9298
:100CC0007F928F929F92AF92BF92CF92DF92EF92DC
:100CD000FF920F931F93CF93DF93E82E842E752EF0
:100CE00080914E01882371F18B01242F352FC9018A
:100CF000EC017AEFF72E67E0962E9E2050E4552EF9
:100D00008E2D90E040E2A42EB12CA822B9223AE325
:100D1000632E20E4C22ED12CC822D9225CC09FB7FA
:100D2000F8949092E9008091E80085FD02C020E0EF
:100D300004C08091F200252D281B9FBF222361F45F
:100D4000FA9419F42FEF3FEF51C061E070E080E0BA
:100D500090E00E9469023FC0822F90E0C817D90737
:100D60000CF42C2F4FB7F8949092E9008091E80092
:100D700085FF30C0C21BD109A114B10421F406C003
:100D80001092F10021502223D9F719C0E7FC03C0CB
:100D9000F801922F10C0C801322F06C0FC01019645
:100DA000E491E093F10031503323C1F706C0819103
:100DB0008093F10091509923D1F7020F111D80917A
:100DC000E80085FF05C0209729F4C114D10411F073
:100DD0006092E8004FBF209709F0A1CF5D9884E6AC
:100DE00080934C01282D372DC9019C01C901DF9149
:100DF000CF911F910F91FF90EF90DF90CF90BF9018
:100E0000AF909F908F907F906F905F9008950F9319
:100E10001F93DF93CF930F92CDB7DEB719828E0168
:100E20000F5F1F4FC8010E949504C8010E94A009CE
:100E3000898190E00F90CF91DF911F910F910895DC
:100E40001F920F920FB60F921124EF92FF921F93F1
:100E50002F933F934F935F936F937F938F939F93C2
:100E6000AF93BF93EF93FF93DF93CF93CDB7DEB7ED
:100E70006197DEBFCDBF1092E9008091E80083FF4B
:100E80000FC1FE0131969E01275F3F4F03C0809145
:100E9000F1008193E217F307D1F7289884E6809355
:100EA0004D0182EF8093E800998197FF05C0809102
:100EB000E80080FFFCCF03C08EEF8093E800292F6D
:100EC00030E0C90180769070892B09F0C2C08A8118
:100ED000882329F41092F1001092F100D6C08130DD
:100EE00009F4D3C0833009F4D0C0853049F480912F
:100EF000E80080FFFCCF8B8180688093E300C5C051
:100F0000863009F07CC01C81EF80F8841230C1F576
:100F10001092E9001092500110924F01109252016C
:100F2000109251010E94070799E0FE013996DF01F6
:100F3000292F1D922A95E9F799871A8791E09E87B4
:100F400090E8988B9AEF998B20914F013091500146
:100F5000275F3F4F3C872B878D871092E9001092C7
:100F6000500110924F01F0925201E092510180E045
:100F7000BF0149E050E00E948D050E94070785C02F
:100F80001092E9001092500110924F01F09252011C
:100F9000E0925101123241F482E290E00E949809FD
:100FA000892B09F476C071C0113079F488E0E81615
:100FB000F10419F481E08093530180915301882357
:100FC00009F06BC0ECEBF1E013C0133009F061C025
:100FD0008B81882319F4EEE7F1E00AC0823019F41E
:100FE000E2E8F1E005C0813009F053C0E4EAF1E045
:100FF000449180E8BF0150E00E948D0546C08730D3
:1010000009F447C0883021F481E08093F1003DC0AD
:101010008930D9F523703070232BD9F5E1EEF1E05A
:1010200091E031E026E39093E9003093EB00849166
:101030008093EC002093ED009F5F3196953099F7F7
:101040008EE78093EA001092EA008B8180934E0134
:101050001CC08F8198851092E90010925001109267
:101060004F0190935201809351018D81882329F47F
:10107000CE0101960E94A10406C0823051F4CE0137
:1010800001960E946908882321F08EEF8093E80082
:1010900007C081E28093EB0003C0EEECF1E0A8CF43
:1010A0006196DEBFCDBFCF91DF91FF91EF91BF91F0
:1010B000AF919F918F917F916F915F914F913F91F0
:1010C0002F911F91FF90EF900F900FBE0F901F90E8
:1010D0001895FC0191818081813A31F4913089F039
:1010E00080E0933089F40DC0813269F49B3021F4A3
:1010F00082818093080105C09A3029F4828180930F
:10110000090181E0089580E00895EF92FF920F9326
:101110001F938C01E62EDC01ED91FC910480F5819A
:10112000E02D0995F82ED801ED91FC910680F7810C
:10113000E02DC8016E2D09958F2D90E01F910F9124
:10114000FF90EF900895109255011092590110925E
:10115000580186E291E090935701809356010895DB
:10116000EF92FF920F931F93DF93CF930F92CDB720
:10117000DEB789838B017A0184E0BE016F5F7F4F08
:1011800041E050E00E945E0684E4B801A7010E949D
:101190005E060F90CF91DF911F910F91FF90EF901E
:1011A000089582E048E050E00E94B0080895FC01F4
:1011B0001682178210861186128613861482349640
:1011C000BF010E94D1080895DC01683810F068580A
:1011D00029C0E62FF0E067FF13C0E058F04081E03F
:1011E00090E002C0880F991FEA95E2F78095149667
:1011F0002C911497282314962C93149760E012C016
:10120000ED59FD4F6491662319F420E030E01DC0D4
:1012100067FF08C014968C9114978D7F14968C9359
:1012200014976F77FD0190E0662321F08681861781
:1012300009F416829F5F31969630B1F7CD0114966E
:10124000BD010E94D10821E030E0C9010895CF938B
:10125000DF93DC01683810F0685825C0E62FF0E015
:1012600067FF12C0E058F04081E090E002C0880FB4
:10127000991FEA95E2F714962C911497282B14964F
:101280002C93149760E00FC0ED59FD4F64916623D5
:10129000D9F167FF08C014968C9114978260149658
:1012A0008C9314976F7716968C9116978617A9F1E1
:1012B00017968C911797861781F118968C9118972D
:1012C000861759F119968C911997861731F11A964C
:1012D0008C911A97861709F11B968C911B9786178C
:1012E000E1F0ED01E0E0F0E09E2F8E81882321F413
:1012F000EA0FFB1F668306C09F5F31962196E6309A
:10130000F10591F7963049F481E090E013969C93B3
:101310008E93129720E030E007C0CD011496BD01F6
:101320000E94D10821E030E0C901DF91CF910895FA
:1013300080E865EE71E045E650E00E948D05089575
:10134000FC0180818F5F808380E86AE472E049E17C
:1013500050E00E948D050895EE0FFF1F0590F49157
:08136000E02D0994F894FFCF81
:1013680000E100000000000001010100020003008C
:101378000400000000000E044304810460047004AB
:101388005C040000000085080D052709E408D7085B
:00000001FF
